{
  "contractName": "Storage",
  "abi": [
    {
      "inputs": [
        {
          "internalType": "uint256",
          "name": "",
          "type": "uint256"
        }
      ],
      "name": "files",
      "outputs": [
        {
          "internalType": "string",
          "name": "hash",
          "type": "string"
        }
      ],
      "stateMutability": "view",
      "type": "function",
      "constant": true
    },
    {
      "inputs": [
        {
          "internalType": "string",
          "name": "_hash",
          "type": "string"
        }
      ],
      "name": "addFile",
      "outputs": [],
      "stateMutability": "nonpayable",
      "type": "function"
    },
    {
      "inputs": [],
      "name": "getFiles",
      "outputs": [
        {
          "internalType": "string[]",
          "name": "",
          "type": "string[]"
        }
      ],
      "stateMutability": "view",
      "type": "function",
      "constant": true
    }
  ],
  "bytecode": "0x608060405234801561001057600080fd5b50610a93806100206000396000f3fe608060405234801561001057600080fd5b50600436106100415760003560e01c80632da96d7314610046578063eb9b9b6414610064578063f4c714b414610080575b600080fd5b61004e6100b0565b60405161005b9190610456565b60405180910390f35b61007e600480360381019061007991906105c1565b6101fb565b005b61009a60048036038101906100959190610640565b610252565b6040516100a791906106b7565b60405180910390f35b60606000808054905067ffffffffffffffff8111156100d2576100d1610496565b5b60405190808252806020026020018201604052801561010557816020015b60608152602001906001900390816100f05790505b50905060005b6000805490508110156101f3576000818154811061012c5761012b6106d9565b5b90600052602060002001600001805461014490610737565b80601f016020809104026020016040519081016040528092919081815260200182805461017090610737565b80156101bd5780601f10610192576101008083540402835291602001916101bd565b820191906000526020600020905b8154815290600101906020018083116101a057829003601f168201915b50505050508282815181106101d5576101d46106d9565b5b602002602001018190525080806101eb90610797565b91505061010b565b508091505090565b6000604051806020016040528083815250905060008190806001815401808255809150506001900390600052602060002001600090919091909150600082015181600001908161024b919061098b565b5050505050565b6000818154811061026257600080fd5b9060005260206000200160009150905080600001805461028190610737565b80601f01602080910402602001604051908101604052809291908181526020018280546102ad90610737565b80156102fa5780601f106102cf576101008083540402835291602001916102fa565b820191906000526020600020905b8154815290600101906020018083116102dd57829003601f168201915b5050505050905081565b600081519050919050565b600082825260208201905092915050565b6000819050602082019050919050565b600081519050919050565b600082825260208201905092915050565b60005b8381101561036a57808201518184015260208101905061034f565b60008484015250505050565b6000601f19601f8301169050919050565b600061039282610330565b61039c818561033b565b93506103ac81856020860161034c565b6103b581610376565b840191505092915050565b60006103cc8383610387565b905092915050565b6000602082019050919050565b60006103ec82610304565b6103f6818561030f565b93508360208202850161040885610320565b8060005b85811015610444578484038952815161042585826103c0565b9450610430836103d4565b925060208a0199505060018101905061040c565b50829750879550505050505092915050565b6000602082019050818103600083015261047081846103e1565b905092915050565b6000604051905090565b600080fd5b600080fd5b600080fd5b600080fd5b7f4e487b7100000000000000000000000000000000000000000000000000000000600052604160045260246000fd5b6104ce82610376565b810181811067ffffffffffffffff821117156104ed576104ec610496565b5b80604052505050565b6000610500610478565b905061050c82826104c5565b919050565b600067ffffffffffffffff82111561052c5761052b610496565b5b61053582610376565b9050602081019050919050565b82818337600083830152505050565b600061056461055f84610511565b6104f6565b9050828152602081018484840111156105805761057f610491565b5b61058b848285610542565b509392505050565b600082601f8301126105a8576105a761048c565b5b81356105b8848260208601610551565b91505092915050565b6000602082840312156105d7576105d6610482565b5b600082013567ffffffffffffffff8111156105f5576105f4610487565b5b61060184828501610593565b91505092915050565b6000819050919050565b61061d8161060a565b811461062857600080fd5b50565b60008135905061063a81610614565b92915050565b60006020828403121561065657610655610482565b5b60006106648482850161062b565b91505092915050565b600082825260208201905092915050565b600061068982610330565b610693818561066d565b93506106a381856020860161034c565b6106ac81610376565b840191505092915050565b600060208201905081810360008301526106d1818461067e565b905092915050565b7f4e487b7100000000000000000000000000000000000000000000000000000000600052603260045260246000fd5b7f4e487b7100000000000000000000000000000000000000000000000000000000600052602260045260246000fd5b6000600282049050600182168061074f57607f821691505b60208210810361076257610761610708565b5b50919050565b7f4e487b7100000000000000000000000000000000000000000000000000000000600052601160045260246000fd5b60006107a28261060a565b91507fffffffffffffffffffffffffffffffffffffffffffffffffffffffffffffffff82036107d4576107d3610768565b5b600182019050919050565b60008190508160005260206000209050919050565b60006020601f8301049050919050565b600082821b905092915050565b6000600883026108417fffffffffffffffffffffffffffffffffffffffffffffffffffffffffffffffff82610804565b61084b8683610804565b95508019841693508086168417925050509392505050565b6000819050919050565b600061088861088361087e8461060a565b610863565b61060a565b9050919050565b6000819050919050565b6108a28361086d565b6108b66108ae8261088f565b848454610811565b825550505050565b600090565b6108cb6108be565b6108d6818484610899565b505050565b5b818110156108fa576108ef6000826108c3565b6001810190506108dc565b5050565b601f82111561093f57610910816107df565b610919846107f4565b81016020851015610928578190505b61093c610934856107f4565b8301826108db565b50505b505050565b600082821c905092915050565b600061096260001984600802610944565b1980831691505092915050565b600061097b8383610951565b9150826002028217905092915050565b61099482610330565b67ffffffffffffffff8111156109ad576109ac610496565b5b6109b78254610737565b6109c28282856108fe565b600060209050601f8311600181146109f557600084156109e3578287015190505b6109ed858261096f565b865550610a55565b601f198416610a03866107df565b60005b82811015610a2b57848901518255600182019150602085019450602081019050610a06565b86831015610a485784890151610a44601f891682610951565b8355505b6001600288020188555050505b50505050505056fea2646970667358221220fe81fd3e127f675c3568a045909e891a2ca71b8f1622cacdabe208535717573f64736f6c63430008130033",
  "immutableReferences": {},
  "source": "//SPDX-License-Identifier: MIT\npragma solidity ^0.8.19;\n\ncontract Storage {\n    struct FileInfo {\n        string hash;\n    }\n\n    FileInfo[] public files;\n\n    function addFile(string memory _hash) public {\n        FileInfo memory newFile = FileInfo(_hash);\n        files.push(newFile);\n    }\n\n    function getFiles() public view returns (string[] memory) {\n        string[] memory fileHashes = new string[](files.length);\n        for (uint256 i = 0; i < files.length; i++) {\n            fileHashes[i] = files[i].hash;\n        }\n        return fileHashes;\n    }\n}\n",
  "sourcePath": "/Users/sami/sami/courses/cloud/distributed-storage-blockchain/blockchain/contracts/Storage.sol",
  "compiler": {
    "name": "solc",
    "version": "0.8.19+commit.7dd6d404.Emscripten.clang"
  },
  "schemaVersion": "3.4.13",
  "updatedAt": "2023-03-29T18:07:55.841Z",
  "networkType": "ethereum",
  "devdoc": {
    "kind": "dev",
    "methods": {},
    "version": 1
  },
  "userdoc": {
    "kind": "user",
    "methods": {},
    "version": 1
  }
}